{"abi":[{"type":"function","name":"attestations","inputs":[{"name":"","type":"address","internalType":"address"}],"outputs":[{"name":"profileHash","type":"bytes32","internalType":"bytes32"},{"name":"timestamp","type":"uint256","internalType":"uint256"}],"stateMutability":"view"},{"type":"function","name":"getAttestation","inputs":[{"name":"user","type":"address","internalType":"address"}],"outputs":[{"name":"profileHash","type":"bytes32","internalType":"bytes32"},{"name":"timestamp","type":"uint256","internalType":"uint256"}],"stateMutability":"view"},{"type":"function","name":"recordAttestation","inputs":[{"name":"profileHash","type":"bytes32","internalType":"bytes32"}],"outputs":[],"stateMutability":"nonpayable"},{"type":"event","name":"AttestationRecorded","inputs":[{"name":"user","type":"address","indexed":true,"internalType":"address"},{"name":"profileHash","type":"bytes32","indexed":false,"internalType":"bytes32"},{"name":"timestamp","type":"uint256","indexed":false,"internalType":"uint256"}],"anonymous":false}],"bytecode":{"object":"0x608060405234801561000f575f80fd5b506103768061001d5f395ff3fe608060405234801561000f575f80fd5b506004361061003f575f3560e01c806320357048146100435780636495b82214610074578063f9b7179714610090575b5f80fd5b61005d60048036038101906100589190610269565b6100c1565b60405161006b9291906102c4565b60405180910390f35b61008e60048036038101906100899190610315565b6100e0565b005b6100aa60048036038101906100a59190610269565b610199565b6040516100b89291906102c4565b60405180910390f35b5f602052805f5260405f205f91509050805f0154908060010154905082565b6040518060400160405280828152602001428152505f803373ffffffffffffffffffffffffffffffffffffffff1673ffffffffffffffffffffffffffffffffffffffff1681526020019081526020015f205f820151815f0155602082015181600101559050503373ffffffffffffffffffffffffffffffffffffffff167fe531fe01124608e361dab204575d16eb1c8791e28e33d27fe55db420ac0a3c32824260405161018e9291906102c4565b60405180910390a250565b5f805f805f8573ffffffffffffffffffffffffffffffffffffffff1673ffffffffffffffffffffffffffffffffffffffff1681526020019081526020015f206040518060400160405290815f82015481526020016001820154815250509050805f015181602001519250925050915091565b5f80fd5b5f73ffffffffffffffffffffffffffffffffffffffff82169050919050565b5f6102388261020f565b9050919050565b6102488161022e565b8114610252575f80fd5b50565b5f813590506102638161023f565b92915050565b5f6020828403121561027e5761027d61020b565b5b5f61028b84828501610255565b91505092915050565b5f819050919050565b6102a681610294565b82525050565b5f819050919050565b6102be816102ac565b82525050565b5f6040820190506102d75f83018561029d565b6102e460208301846102b5565b9392505050565b6102f481610294565b81146102fe575f80fd5b50565b5f8135905061030f816102eb565b92915050565b5f6020828403121561032a5761032961020b565b5b5f61033784828501610301565b9150509291505056fea26469706673582212200bc2386e9dec7d9a9dd452c827f44f49c3abcd282f236da65b1e651d2486914e64736f6c63430008180033","linkReferences":{}},"methodIdentifiers":{"attestations(address)":"20357048","getAttestation(address)":"f9b71797","recordAttestation(bytes32)":"6495b822"},"id":19}